:020000040800F2
:100000006021002045010008374E0008050F000858
:10001000354E00087D040008914E000800000000E5
:100020000000000000000000000000003B4E00083F
:100030007F04000800000000394E00083D4E000813
:100040005F0100085F0100085F0100085F01000810
:100050005F0100085F010008AD0400085F010008AF
:10006000B3040008B9040008BF0400085F010008D9
:100070005F0100085F0100085F0100085F010008E0
:100080005F0100085F0100085F0100085F010008D0
:100090005F0100085F0100085F0100085F010008C0
:1000A0005F0100085F0100085F0100085F010008B0
:1000B0005F0100085F0100085F0100085F010008A0
:1000C0005F0100085F0100085F0100085F01000890
:1000D0005F0100085F0100085F0100085F01000880
:1000E0005F0100085F0100085F0100085F01000870
:1000F0005F0100085F0100085F0100085F01000860
:100100005F0100085F0100085F0100085F0100084F
:100110005F0100085F0100085F0100085F0100083F
:100120005F0100085F0100085F0100085F0100082F
:10013000DFF80CD000F042F900480047E151000818
:10014000602100200648804706480047FEE7FEE79A
:10015000FEE7FEE7FEE7FEE7FEE7FEE7FEE7FEE777
:100160008F4E000831010008202A04DB203A21FAD2
:1001700002F00021704721FA02F3D040C2F12002C0
:1001800091400843194670470649074A086850439A
:1001900043F2390210440860400870470149086082
:1001A00070470000040200206D4EC641D2B201E04B
:1001B00000F8012B491EFBD270470022F6E710B56C
:1001C00013460A4604461946FFF7F0FF204610BDC5
:1001D0002DE9FE4F81EA030404F0004421F00041C0
:1001E00000944FF0000B23F0004350EA01045ED06E
:1001F00052EA03045BD0C3F30A54C1F30A552C44FA
:10020000A4F2F3340194A0FB0254C1F3130141F4AE
:100210008011C3F3130343F4801301FB024400FB7A
:10022000034E840A970A44EA815447EA8357A4FBA1
:10023000076802958D0A05FB07854FEA932C04FB9E
:100240000C542705029D4FEA065847EA1637B5EBCE
:1002500008056EEB070C870E920E47EA811742EAFB
:100260008312A7FB0201B6EB0B0164EB00042B0D1C
:1002700043EA0C335E1844EB1C50DA465146E7FB68
:100280000201C5F313044FEA0B3343EA14534FEA58
:100290000432019C43EA0603A4F10C040294009C7E
:1002A000CDE900B400F03BF803B0BDE8F08F0020CA
:1002B0000146F9E70EB540F2334102910021CDE944
:1002C00000110A460B4600F02AF803B000BDC1F346
:1002D0000A5210B5C1F3130140F2FF3341F480110B
:1002E0009A4201DA002010BD40F233439A42A2F252
:1002F000334203DC5242FFF737FF10BD904010BD80
:1003000010B5141E73F1000408DA401C41F100011D
:1003100092185B411A4301D120F0010010BD2DE974
:10032000F04D92469B4611B1B1FA81F202E0B0FA6B
:1003300080F22032904600F053F804460F4640EA1F
:100340000A0041EA0B0153465A46084313D01146AE
:1003500053EA010019D0C8F140025046FFF704FFEC
:1003600005460E4650465946424600F039F80843C5
:1003700005D0012004E020463946BDE8F08D00207C
:10038000054346EAE0762C4337430A986305E40ABE
:10039000A0EB08000022FD0A44EA47540A3002D5C7
:1003A00000200146E9E7010510196941DDE908452A
:1003B00000196941BDE8F04DA2E70000064C074D69
:1003C00006E0E06840F0010394E807009847103425
:1003D000AC42F6D3FFF7B0FE8C6A0008AC6A0008A6
:1003E000202A04DB203A00FA02F1002070479140F5
:1003F000C2F1200320FA03F319439040704770B50F
:100400008C1810F8015B15F0070301D110F8013BBF
:100410002A1106D110F8012B03E010F8016B01F846
:10042000016B5B1EF9D12B0705D40023521E0DD49E
:1004300001F8013BFAE710F8013BCB1A921C03E0EC
:1004400013F8015B01F8015B521EF9D5A142D8D324
:10045000002070BD70B50122074D140221462846C8
:1004600000F00AFA642000F0A3F821462846BDE80F
:100470007040002200F000BA000C0140FEE7704717
:100480004FF6FF7208B500EB800001EB810102EA34
:10049000400002EA41011F22009201F10A0293B2D8
:1004A00000F10A0292B200F0D1FE08BD012000F076
:1004B000DBB8042000F0D8B8082000F0D5B8102030
:1004C00000F0D2B87047000030B5B3F5804F05D0CA
:1004D0006FF0704140F82210002030BD8C690B682D
:1004E0008D6823434C688989240144EA0524234309
:1004F00043EA014150F82230014C23401943E9E717
:100500000000F0CF10B50A6850F8223023F0010344
:1005100040F822308C68082C23D000234A682243FC
:10052000CC681C430B6922431A434B690E4C1A4397
:10053000CB691A430B6A1A434B6A1A438B6A1A43F4
:10054000CB6A1A430B6B1A438B6913434A6B0968D6
:100550001A4350F82130A343134340F821300020C0
:1005600010BD4023DAE700007FFF0F0030B5D1E96E
:10057000003443EA04138C688D89240244EA05445C
:1005800023430C8A094D00EB820005EB04542343FE
:100590000C7D6D0105EB0464896923430B434168BD
:1005A00001F040410B434360002030BD0000F0FFEC
:1005B00070B5044600F066F90546601C02D0044898
:1005C0000078044400F05EF9401BA042FAD370BDED
:1005D0000C00002030B585B0002000900190029002
:1005E000039017480168002927D1012101601548AF
:1005F000416941F4807141614069022400F48070D6
:10060000049041F20100CDE90004032569460395F9
:100610000D4800F035F84FF68070CDE900046946CA
:1006200003950A4800F02CF84CF23370CDE9000431
:1006300069460395064800F023F805B030BD000078
:10064000040000200010024000200140001801407A
:100650000014014003490A6812B100200860704785
:1006600000F052BC00000020044910B50A680242A4
:1006700002D00860FFF7EEFF10BD00001404014037
:100680002DE9F84FDFF8C891002409F1040A0AF1B6
:10069000040B23460F270BF1040ED1E00125A540E2
:1006A00006EA0502AA4276D1DFF8A8C14E68A6EB99
:1006B0000C0866452BD00DDC032E34D005DC36B398
:1006C000012E19D0022E2FD11BE0112E16D0122E82
:1006D0002AD119E0B8F5881F19D006DCB8F5803F9B
:1006E00015D0B8F5801F1FD111E0B8F5001F0ED04E
:1006F000B8F5041F18D10AE0CB6815E0CB681B1DC4
:1007000012E0CB6808330FE0CB680C330CE08B6849
:100710002BB1012B4FF0080303D0456104E0042303
:1007200002E0056100E00023FF2A01D8064601E04F
:1007300000F104064FEA840501D9A5F12005D6F899
:10074000008007FA05FC28EA0C0803FA05F548EAD8
:100750000508C6F800804D68ED0070D53E4DAE69C5
:1007600046F00106AE61AD6924F0030605F001050F
:1007700000953A4D06EB050CDCF80850A607360F3D
:1007800007FA06F825EA0805DFF8D480404503D1CA
:100790004FF0000825E052E0DFF8C880404502D164
:1007A0004FF001081DE0DFF8C080404502D14FF056
:1007B000020816E0DFF8B480404502D14FF003088C
:1007C0000FE0DFF8AC80404502D14FF0040808E0AC
:1007D000DFF8A080404502D14FF0050801E04FF05E
:1007E000060808FA06F848EA0508CCF808804D68BB
:1007F000D9F80060ED034D4601D5164300E096435D
:100800002E604D68DAF80060AD03554601D51643F9
:1008100000E096432E604D68DBF80060ED025D4617
:1008200001D5164300E096432E604D68DEF8006067
:10083000AD02754601D5164300E096432E60641C58
:100840000A681646E2407FF429AFBDE8F88F000041
:10085000000401400000111000100240000001409F
:1008600000080140000C014000100140001401404C
:1008700000180140001C01400AB1016170470904E1
:10088000FBE7000001488068704700000C00002072
:100890000248816802781144816070470C00002092
:1008A000074810B5016841F010010160032000F015
:1008B00073F8002000F006F800F024F8002010BDC6
:1008C0000020024070B50D4D04464FF47A7128782F
:1008D000B1FBF0F00A490968B1FBF0F000F0FEFA54
:1008E00048B9102C07D200222146501E00F034F8DF
:1008F00000206C6070BD012070BD00000C00002065
:10090000180000200B4808B5816941F001018161A0
:10091000816901F001010091C16941F08051C1611B
:10092000C06900F0805000900348416821F0E06108
:10093000416008BD0010024000000140002809DBB2
:1009400000F01F02012191404009800000F1E020E9
:10095000C0F8001170470000F0B40E4B1B680C4645
:10096000C3F30223C3F10705042D00D90425191D83
:10097000072901D2002300E0DB1E012606FA05F15B
:10098000491E214099409E40761E16403143F0BCDE
:1009900004F07FBA0CED00E0064900F00702086899
:1009A0004FF6FF03184040EA0220034A1043086054
:1009B000704700000CED00E00000FA052DE9F0475B
:1009C0000F46050061D0434E306800F00700B84282
:1009D00009D2306820F0070038433060306800F0FA
:1009E0000700B84251D128683B4C810712D5400717
:1009F00003D5606840F4E06060602878000703D5A4
:100A0000606840F4605060606068A96820F0F000A1
:100A1000084360602878C00728D06868012810D093
:100A20002168022810D0890700292EDA616821F098
:100A3000030101436160FFF725FF804641F28839D9
:100A40000DE021688903EFE78901EDE7FFF71AFF61
:100A5000A0EB0801494502D90320BDE8F087606892
:100A6000696800F00C00B0EB810FEFD1306800F046
:100A70000700B8420BD9306820F0070038433060D7
:100A8000306800F00700B84201D00120E5E728787F
:100A9000400705D56068E96820F4E06008436060BD
:100AA0002878000706D56068296920F4605040EA7C
:100AB000C100606000F018F86168084AC1F30311D2
:100AC000515CC8400649086006480068FFF7FAFE16
:100AD0000020C2E70020024000100240BC52000883
:100AE000180000201000002012A185B00FC98DE869
:100AF0000F0014A0144A006804905168134801F0D4
:100B00000C03042B10D0082B0ED1C1F38343C9036F
:100B10001DF803000AD5516804AAC1F34041515C95
:100B20000A4A5043B0FBF1F005B07047084948430A
:100B3000FAE7000002030405060708090A0B0C0D7A
:100B40000E0F1010010200000010024000127A0087
:100B500000093D002DE9F84F040070D02078C04D09
:100B6000C00749D06868C0F38100012807D06868D1
:100B7000C0F38100022809D16868C00306D528683F
:100B8000800339D560680028E7D035E06068B0F5AB
:100B9000803F0BD010B1B0F5A02F11D0286820F401
:100BA00080302860286820F4802002E0286840F423
:100BB00080302860606890B1FFF764FE06460AE066
:100BC000286840F480202860F0E700BFFFF75AFE55
:100BD000801B642873D828688003F7D50CE0FFF7E2
:100BE00051FE064605E000BFFFF74CFE801B64285F
:100BF000F0D828688003F7D420789A4E80074FF009
:100C000001094FF0000839D5686810F00C0F07D0C3
:100C10006868C0F38100022809D16868C00306D45F
:100C20002868800714D52069012808D110E02069C0
:100C3000B0B1C6F80090FFF725FE074605E00AE1CF
:100C4000FFF720FEC01B0228C4D828688007F7D50C
:100C50002868616920F0F80040EAC10028600DE0D2
:100C6000C6F80080FFF70EFE074604E0FFF70AFE15
:100C7000C01B022823D828688007F7D420780007F3
:100C80002CD57948A169D9B1C0F80090FFF7FAFDD9
:100C9000074604E0FFF7F6FDC01B02280FD8686A7C
:100CA0008007F7D571484FF4FA510068B0FBF1F0B6
:100CB000009000BF0098411E0091FAD20EE080E043
:100CC000C0F80080FFF7DEFD074604E0FFF7DAFD1D
:100CD000C01B022875D8686A8007F7D420784007BF
:100CE00060D5E8690027C00008D4E86940F080506A
:100CF000E861E869012700F0805000905C480168D5
:100D0000C90513D40168834641F480710160FFF77F
:100D1000B9FD824606E000BFFFF7B4FDA0EB0A0074
:100D200064284ED8DBF80000C005F5D5E06801283E
:100D30000AD008B1052813D0286A20F001002862E3
:100D4000286A20F0040002E0286A40F001002862CE
:100D5000E06841F2883B98B1FFF794FD82460BE0D2
:100D6000286A40F004002862EEE700BFFFF78AFD22
:100D7000A0EB0A0159455AD8286A8007F6D50CE03D
:100D8000FFF780FD824605E0FFF77CFDA0EB0A013E
:100D900059454CD8286A8007F6D41FB1E86920F07D
:100DA0008050E861E06988B36968C1F38101022974
:100DB00044D00228C6F8608004D0FFF763FD0446E3
:100DC00038E034E0FFF75EFD074604E0FFF75AFD28
:100DD000C01B02282BD828688001F7D4206AB0F500
:100DE000803F05D16868A16820F40030084368603E
:100DF000D4E908010843696821F474110843686064
:100E0000C6F86090FFF73EFD044606E025E000BF0F
:100E1000FFF738FD001B022809D828688001F7D5A4
:100E20001BE000BFFFF72EFD001B022802D90320A4
:100E3000BDE8F88F28688001F4D40EE00128F7D0CF
:100E40006868226A00F48031914204D1616A00F43A
:100E50007010884201D00120EAE70020E8E7000096
:100E6000001002400000424280044242180000206C
:100E70000070004070B515460E46040007D0A0690A
:100E8000B0F5807F03D094F8410010B107E0012055
:100E900070BD002084F84000204600F01DF804F1E9
:100EA00008012068FFF72EFB3146A2682068FFF793
:100EB0005DFBD4E901022946236BFFF705FBA1681E
:100EC000206850F8212042F0010240F82120012042
:100ED00084F84100002070BDFFF77CBB10B5401EB8
:100EE000B0F1807F01D3012010BD4FF0E02460619C
:100EF0000F21601703F0CDFF0020A06107202061C3
:100F0000002010BDFEE7000070B5204C012804F160
:100F10002005A16805EB8112216918D021462B46D6
:100F20008A68096903EB821202EB0112042806D0D9
:100F3000082809D0102815D11046022101E01046DA
:100F4000012104F031F80DE010460021F9E7491CB9
:100F5000C81701EB907020F00300081A02EB001094
:100F600004F07CF9A068216905EB801000EB01100A
:100F700004F080F804F056F9A068216905EB8010B0
:100F8000BDE8704000EB011004F050B824000020D0
:100F90002DE9F047174C8146002520886688464396
:100FA000A088A0F5D041043902D1A079012807D04A
:100FB0000021084603F0FAFC03F03CFE0E4814E062
:100FC0000020A0712A2767814FF02B08A4F80C801D
:100FD000014603F0EBFC0120A071A4F80A80A78170
:100FE000EAE700BFA0F800906D1CB542FAD3BDE857
:100FF000F0870000500200200008006C2DE9F05F2F
:101000004A492A242B25898845F2105A4FF4305B2F
:101010004FF4285E4FF448764FF0F00C49F2413916
:101020004FF4A07345F210374FF4F07280B13F488F
:101030004FF00108494580F806800380A0F802C0FF
:1010400001D0B9423ED12C2606814481858157E0EA
:1010500036484FF00008494580F80680A0F800C0E7
:10106000438006D0A1F5D04CBCF1040C01D0B942AC
:101070000CD12C2606814481A1F5D0448581043C05
:1010800001D0B94244D10380428041E0514507D1AB
:10109000A0F808B0A0F80AE04FF42C5181810EE0CE
:1010A000A1F5C853633B06D0222101812021418153
:1010B000212181812CE02C210181458184810280C4
:1010C000468025E0A1F5D04CBCF1040C09D0514577
:1010D0000BD1A0F808B0A0F80AE04FF42C5484819A
:1010E00021E02C260681458109E0A1F5C85CBCF110
:1010F000630C12D022240481212444812024848181
:10110000A1F5D044043C01D0B94201D10280438012
:10111000BDE8F05F002003F047BB4FF02C0CA0F8B7
:1011200008C04481858106804280E9E750020020A2
:101130002DE9F047434D0E4604464FEA1128A88892
:1011400029469146270A4A89A0F51343413B17D007
:10115000A0F5A641103913D0A0F5AA41103914D03A
:101160002B46A0F5C85799791B881B1B5B1E633F54
:1011700025D0A0F5D047043F3DD0012951D051E002
:10118000104603F051FD38463CE0104603F04CFD9C
:10119000384603F043FD6889401C80B203F044FDEB
:1011A000E0B203F03BFDA88903F03EFD404603F0AA
:1011B00035FDA889401C80B203F036FD2DE001B951
:1011C0009CB2104603F030FD270A384603F026FD96
:1011D000E0B203F023FD384603F020FDE0B203F057
:1011E0001DFDA88903F020FD404603F017FDF0B275
:1011F00003F014FD0EE0012900D19CB2104603F06B
:1012000013FD200A03F00AFDE0B203F007FDA889F0
:1012100003F00AFD404603F001FDF0B203F0FEFCCE
:1012200008E09CB22146104603F00EFDA889314625
:1012300003F00AFD044928890880891CA1F8009060
:10124000BDE8F08750020020FE07006C2DE9F8434E
:101250001F4C1E468046A388089FA3F5D040043843
:1012600002D1A079012807D0A2EB0800401C84B26B
:101270000D46DFF8609028E025880846A91AA5EBFE
:1012800008030025A57132462A2565812B26491EB3
:101290005B1EA68189B29BB20097FFF7D7FF0120A2
:1012A000A0716681A581BDE8F8832946404603F018
:1012B0007DFB03F0BFFC0020494602E00F80401C8C
:1012C00080B2A042FAD36D1CADB2B542EDD9EAE7C7
:1012D000500200200008006C10B5002003F038FA1E
:1012E00043494FF6FF74FF28888004D3A04202D000
:1012F000B0F5134F78D13F4AD320108003F01EFA87
:10130000888003F01BFA888003F018FA04EA0020B2
:10131000888003F013FA8B881843A0F51343888064
:10132000413B61D0BF20108003F008FA888003F0B1
:1013300005FA888003F002FA888003F0FFF904EAD6
:101340000020888003F0FAF98B881843A0F5D04379
:101350008880043B48D0D420108003F0EFF98880C7
:1013600003F0ECF9888003F0E9F904EA00208880B2
:1013700003F0E4F98B881843A0F5A6438880103B5E
:1013800032D04FF45A40108003F0D8F988804FF4DF
:101390005B40108003F0D2F904EA002088804FF40B
:1013A0005C40108003F0CAF98B881843888045F2AE
:1013B0001053B0F5004F19D0984215D0A1201080DD
:1013C00003F0BCF9888003F0B9F904EA00208880B2
:1013D00003F0B4F98A881043A0F5AE428880613AE0
:1013E00002D141F663108880888810BD8B80FBE7AE
:1013F00050020020FE07006C2DE9F05FFE4C014614
:1014000020600A208847FFF767FFFC488088A0F526
:101410001341413956D0A0F5D04104397ED0A0F512
:10142000A64110397BD0A0F5AA41103901F07F8187
:10143000A0F513414FF480754FF4E06740F20229A4
:1014400040F23F1A4FF42748253902F0ED80FE1D87
:10145000A0F51341283902F0B381A0F513414FF4F0
:1014600088784FF41C5B203902F06682A0F51341A6
:10147000313902F00583A0F5A841083902F0D5837F
:10148000A0F5A8514FF44078053902F06984A0F521
:101490003541053902F06F85A0F54541053902F067
:1014A0006686A0F58A41313902F02987A0F58A4184
:1014B000353902F0DA87A0F5C851633903F07C8032
:1014C00003F032B9CF2003F0AFFB002003F0A6FBFE
:1014D000C12003F0A3FB302003F0A0FBED2003F0BC
:1014E000A3FB642003F09AFB032003F097FB122078
:1014F00003F094FB812003F091FBE82003F094FBC0
:10150000852003F08BFB102003F088FB7A2003F08A
:1015100085FBCB2003F088FB392001E0E4E090E17B
:1015200003F07CFB2C2003F079FB002003F076FB1A
:10153000342003F073FB022003F070FBF72003F06C
:1015400073FB202003F06AFBEA2003F06DFB002010
:1015500003F064FB002003F061FBC02003F064FB98
:101560001B2003F05BFBC12003F05EFB012003F0B6
:1015700055FBC52003F058FB302003F04FFB302013
:1015800003F04CFBC72003F04FFBB72003F046FBF2
:10159000362003F049FB482003F040FB3A2003F0DB
:1015A00043FB552003F03AFBB12003F03DFB002044
:1015B00003F034FB1A2003F031FBB62003F034FBB8
:1015C0000A2003F02BFBA22003F028FBF22003F0FB
:1015D0002BFB002003F022FB262003F025FB01203B
:1015E00003F01CFBE02003F01FFB0F2003F016FBB1
:1015F0002A2003F013FB282003F010FB082003F03F
:101600000DFB0E2003F00AFB082003F007FB54201B
:1016100003F004FBA92003F001FB432003F0FEFAD2
:101620000A2003F0FBFA0F2003F0F8FA002003F081
:10163000F5FA002003F0F2FA002003F0EFFA0020A0
:1016400003F0ECFAE12003F0EFFA002003F0E6FAF1
:10165000152003F0E3FA172003F0E0FA072003F067
:10166000DDFA112003F0DAFA062003F0D7FA2B2076
:1016700003F0D4FA562003F0D1FA3C2003F0CEFA5E
:10168000052003F0CBFA102003F0C8FA0F2003F076
:10169000C5FA3F2003F0C2FA3F2003F0BFFA0F2043
:1016A00003F0BCFA2B2003F0BFFA002003F0B6FAD7
:1016B000002003F0B3FA012003F0B0FA3F2003F05A
:1016C000ADFA2A2003F0B0FA002003F0A7FA0020B8
:1016D00003F0A4FA002003F0A1FAEF2003F09EFA31
:1016E000112003F0A1FAA6E0112003F09DFA216871
:1016F00014208847D02003F097FA072003F08EFAD1
:10170000422003F08BFA1D2003F088FAD12003F069
:101710008BFA002003F082FA1A2003F07FFA0920E6
:1017200003F07CFAD22003F07FFA012003F076FA6E
:10173000222003F073FAC02003F076FA102003F0A1
:101740006DFA3B2003F06AFA002003F067FA0220EA
:1017500003F064FA112003F061FAC52003F064FA83
:10176000032003F05BFAC82003F05EFA002003F0C8
:1017700055FA252003F052FA212003F04FFA0520F4
:1017800003F04CFA002003F049FA0A2003F046FA6D
:10179000652003F043FA252003F040FA772003F098
:1017A0003DFA502003F03AFA0F2003F037FA0020F8
:1017B00003F034FAF82003F037FA012003F02EFA90
:1017C000FE2003F031FA002003F028FA022003F093
:1017D00025FA202003F028FA362003F025FA082005
:1017E00003F01CFA3A2003F01FFA552003F016FA12
:1017F0002B2003F019FA03E01C0000205002002007
:10180000002003F00BFA002003F008FA012003F097
:1018100005FA3F2003F002FA2A2003F005FA00201F
:1018200003F0FCF9002003F0F9F9012003F0F6F9C8
:10183000DF2003F0F3F9216878208847292001F0A0
:10184000F0BEED2003F0F0F9012003F0E7F9FE20EF
:1018500003F0E4F9EE2003F0E7F9DE2003F0DEF90F
:10186000212003F0DBF9F12003F0DEF9012003F081
:10187000D5F9DF2003F0D8F9102003F0CFF9C42008
:1018800003F0D2F98F2003F0C9F9C62003F0CCF998
:10189000002003F0C3F9E22003F0C0F9E22003F0D6
:1018A000BDF9E22003F0BAF9BF2003F0BDF9AA2088
:1018B00003F0B4F9B02003F0B7F90D2003F0AEF94E
:1018C000002003F0ABF90D2003F0A8F9002003F08D
:1018D000A5F9112003F0A2F9002003F09FF91920C7
:1018E00003F09CF9002003F099F9212003F096F908
:1018F000002003F093F92D2003F090F9002003F06D
:101900008DF93D2003F08AF9002003F087F95D206E
:1019100003F084F9002003F081F95D2003F07EF9E3
:10192000002003F07BF9B12003F07EF9802003F062
:1019300075F9002003F072F98B2003F06FF9002095
:1019400003F06CF9962003F069F9002003F066F9C2
:10195000B22003F069F9002003F060F9002003F0E1
:101960005DF9022003F05AF9002003F057F9032033
:1019700003F054F9002003F051F9B32003F054F9B7
:10198000002003F04BF9002003F048F9002003F099
:1019900045F9002003F042F9002003F03FF9002050
:1019A00003F03CF9002003F039F9002003F036F988
:1019B000002003F033F9002003F030F9002003F099
:1019C0002DF9002003F02AF9002003F027F9002068
:1019D00003F024F9002003F021F9002003F01EF9A0
:1019E000002003F01BF9002003F018F9002003F099
:1019F00015F9002003F012F9002003F00FF9002080
:101A000003F00CF9002003F009F9002003F006F9B7
:101A1000B42003F009F98B2003F000F9002003F053
:101A2000FDF8962003F0FAF8002003F0F7F8A12063
:101A300003F0F4F8002003F0F1F8B52003F0F4F817
:101A4000022003F0EBF8002003F0E8F8032003F095
:101A5000E5F8002003F0E2F8042003F0DFF80020AE
:101A600003F0DCF8B62003F0DFF8002003F0D6F82E
:101A7000002003F0D3F8B72003F0D6F8002003F0DD
:101A8000CDF8002003F0CAF83F2003F0C7F800208B
:101A900003F0C4F85E2003F0C1F8002003F0BEF8A4
:101AA000642003F0BBF8002003F0B8F88C2003F0AA
:101AB000B5F8002003F0B2F8AC2003F0AFF8002036
:101AC00003F0ACF8DC2003F0A9F8002003F0A6F83E
:101AD000702003F0A3F8002003F0A0F8902003F09A
:101AE0009DF8002003F09AF8EB2003F097F800200F
:101AF00003F094F8DC2003F091F8002003F08EF856
:101B0000B82003F091F8002003F088F8002003F0DB
:101B100085F8002003F082F8002003F07FF8002011
:101B200003F07CF8002003F079F8002003F076F849
:101B3000002003F073F8BA2003F076F8242003F0B5
:101B40006DF8002003F06AF8002003F067F8002029
:101B500003F064F8C12003F067F8202003F05EF87A
:101B6000002003F05BF8542003F058F8002003F045
:101B700055F8FF2003F052F8002003F04FF8C22080
:101B800003F052F80A2003F049F8002003F046F869
:101B9000042003F043F8002003F040F8C32003F0D2
:101BA00043F83C2003F03AF8002003F037F83A20DD
:101BB00003F034F8002003F031F8392003F02EF858
:101BC000002003F02BF8372003F028F8002003F062
:101BD00025F83C2003F022F8002003F01FF83620FF
:101BE00003F01CF8002003F019F8322003F016F877
:101BF000002003F013F82F2003F010F8002003F06A
:101C00000DF82C2003F00AF8002003F007F8292033
:101C100003F004F8002003F001F8262002F0FEFF94
:101C2000002002F0FBFF242002F0F8FF002002F069
:101C3000F5FF242002F0F2FF002002F0EFFF232046
:101C400002F0ECFF002002F0E9FF3C2002F0E6FF8A
:101C5000002002F0E3FF362002F0E0FF002002F057
:101C6000DDFF322002F0DAFF002002F0D7FF2F2044
:101C700002F0D4FF002002F0D1FF2C2002F0CEFFB2
:101C8000002002F0CBFF292002F0C8FF002002F064
:101C9000C5FF262002F0C2FF002002F0BFFF242073
:101CA00002F0BCFF002002F0B9FF242002F0B6FFD2
:101CB000002002F0B3FF232002F0B0FF002002F06A
:101CC000ADFFC42002F0B0FF622002F0A7FF0020A9
:101CD00002F0A4FF052002F0A1FF002002F09EFF09
:101CE000842002F09BFF002002F098FFF02002F019
:101CF00095FF002002F092FF182002F08FFF0020D5
:101D000002F08CFFA42002F089FF002002F086FF81
:101D1000182002F083FF002002F080FF502002F024
:101D20007DFF002002F07AFF0C2002F077FF0020F8
:101D300002F074FF172002F071FF002002F06EFF26
:101D4000952002F06BFF002002F068FFF32002F004
:101D500065FF002002F062FFE62002F05FFF002036
:101D600002F05CFFC52002F05FFF322002F056FF58
:101D7000002002F053FF442002F050FF002002F048
:101D80004DFF652002F04AFF002002F047FF762059
:101D900002F044FF002002F041FF882002F03EFFE5
:101DA000002002F03BFFC62002F03EFF202002F0A0
:101DB00035FF002002F032FF172002F02FFF002035
:101DC00002F02CFF012002F029FF002002F026FF84
:101DD000C72002F029FF002002F020FF002002F0BF
:101DE0001DFF002002F01AFF002002F017FFC8209C
:101DF00002F01AFF002002F011FF002002F00EFF97
:101E0000002002F00BFF002002F008FFC92002F0C2
:101E10000BFF002002F002FF002002F0FFFE002076
:101E200002F0FCFE002002F0F9FE002002F0F6FEB7
:101E3000002002F0F3FE002002F0F0FE002002F08D
:101E4000EDFE002002F0EAFE002002F0E7FE002096
:101E500002F0E4FE002002F0E1FE002002F0DEFECF
:101E6000002002F0DBFE002002F0D8FE002002F08D
:101E7000D5FEE02002F0D8FE162002F0CFFE0020B2
:101E800002F0CCFE1C2002F0C9FE002002F0C6FECB
:101E9000212002F0C3FE002002F0C0FE362002F036
:101EA000BDFE002002F0BAFE462002F0B7FE002080
:101EB00002F0B4FE522002F0B1FE002002F0AEFEAD
:101EC000642002F0ABFE002002F0A8FE7A2002F0AF
:101ED000A5FE002002F0A2FE8B2002F09FFE002053
:101EE00002F09CFE992002F099FE002002F096FE7E
:101EF000A82002F093FE002002F090FEB92002F02C
:101F00008DFE002002F08AFEC42002F087FE002031
:101F100002F084FECA2002F081FE002002F07EFE64
:101F2000D22002F07BFE002002F078FED92002F0E1
:101F300075FE002002F072FEE02002F06FFE00202D
:101F400002F06CFEF32002F069FE002002F066FE53
:101F5000E12002F069FE162002F060FE002002F08F
:101F60005DFE1C2002F05AFE002002F057FE2220E7
:101F700002F054FE002002F051FE362002F04EFE28
:101F8000002002F04BFE452002F048FE002002F047
:101F900045FE522002F042FE002002F03FFE642087
:101FA00002F03CFE002002F039FE7A2002F036FEFC
:101FB000002002F033FE8B2002F030FE002002F001
:101FC0002DFE992002F02AFE002002F027FEA82014
:101FD00002F024FE002002F021FEB92002F01EFED5
:101FE000002002F01BFEC42002F018FE002002F0C8
:101FF00015FECA2002F012FE002002F00FFED220D1
:1020000002F00CFE002002F009FED82002F006FECD
:10201000002002F003FEE02002F000FE002002F0AB
:10202000FDFDF32002F0FAFD002002F0F7FDE220B2
:1020300002F0FAFD052002F0F1FD002002F0EEFDB5
:102040000B2002F0EBFD002002F0E8FD1B2002F067
:10205000E5FD002002F0E2FD342002F0DFFD00206B
:1020600002F0DCFD442002F0D9FD002002F0D6FD94
:102070004F2002F0D3FD002002F0D0FD612002F0DD
:10208000CDFD002002F0CAFD792002F0C7FD00203E
:1020900002F0C4FD882002F0C1FD002002F0BEFD68
:1020A000972002F0BBFD002002F0B8FDA62002F050
:1020B000B5FD002002F0B2FDB72002F0AFFD002018
:1020C00002F0ACFDC22002F0A9FD002002F0A6FD46
:1020D000C72002F0A3FD002002F0A0FDD12002F0F5
:1020E0009DFD002002F09AFDD62002F097FD002011
:1020F00002F094FDDD2002F091FD002002F08EFD43
:10210000F32002F08BFD002002F088FDE32002F0B6
:102110008BFD052002F082FD002002F07FFD0A20E9
:1021200002F07CFD002002F079FD1C2002F076FD1B
:10213000002002F073FD332002F070FD002002F059
:102140006DFD442002F06AFD002002F067FD502082
:1021500002F064FD002002F061FD622002F05EFDED
:10216000002002F05BFD782002F058FD002002F014
:1021700055FD882002F052FD002002F04FFD97200F
:1021800002F04CFD002002F049FDA62002F046FDC1
:10219000002002F043FDB72002F040FD002002F0D5
:1021A0003DFDC22002F03AFD002002F037FDC720BD
:1021B00002F034FD002002F031FDD12002F02EFDAE
:1021C000002002F02BFDD52002F028FD002002F0B7
:1021D00025FDDD2002F022FD002002F01FFDF3208E
:1021E00002F01CFD002002F019FDE42002F01CFDAD
:1021F000012002F013FD002002F010FD012002F08A
:102200000DFD002002F00AFD022002F007FD002073
:1022100002F004FD2A2002F001FD002002F0FEFC85
:102220003C2002F0FBFC002002F0F8FC4B2002F006
:10223000F5FC002002F0F2FC5D2002F0EFFC002033
:1022400002F0ECFC742002F0E9FC002002F0E6FC55
:10225000842002F0E3FC002002F0E0FC932002F076
:10226000DDFC002002F0DAFCA22002F0D7FC002006
:1022700002F0D4FCB32002F0D1FC002002F0CEFC2E
:10228000BE2002F0CBFC002002F0C8FCC42002F00B
:10229000C5FC002002F0C2FCCD2002F0BFFC0020F3
:1022A00002F0BCFCD32002F0B9FC002002F0B6FC26
:1022B000DD2002F0B3FC002002F0B0FCF32002F0BD
:1022C000ADFC002002F0AAFCE52002F0ADFC0020ED
:1022D00002F0A4FC002002F0A1FC002002F09EFC11
:1022E000002002F09BFC022002F098FC002002F08B
:1022F00095FC292002F092FC002002F08FFC3C208B
:1023000002F08CFC002002F089FC4B2002F086FCDD
:10231000002002F083FC5D2002F080FC002002F02F
:102320007DFC742002F07AFC002002F077FC84200F
:1023300002F074FC002002F071FC932002F06EFCAD
:10234000002002F06BFCA22002F068FC002002F0EA
:1023500065FCB32002F062FC002002F05FFCBE20AE
:1023600002F05CFC002002F059FCC42002F056FC94
:10237000002002F053FCCD2002F050FC002002F0BF
:102380004DFCD32002F04AFC002002F047FCDC2088
:1023900002F044FC002002F041FCF32002F03EFC7D
:1023A000002002F03BFCE62002F03EFC112002F08F
:1023B00035FC002002F032FC342002F02FFC00201B
:1023C00002F02CFC562002F029FC002002F026FC32
:1023D000762002F023FC002002F020FC772002F09F
:1023E0001DFC002002F01AFC662002F017FC002001
:1023F00002F014FC882002F011FC002002F00EFC18
:10240000992002F00BFC002002F008FCBB2002F037
:1024100005FC002002F002FC992002F0FFFB0020E6
:1024200002F0FCFB662002F0F9FB002002F0F6FB54
:10243000552002F0F3FB002002F0F0FB552002F0E3
:10244000EDFB002002F0EAFB452002F0E7FB002054
:1024500002F0E4FB432002F0E1FB002002F0DEFB8F
:10246000442002F0DBFB002002F0D8FBE72002F062
:10247000DBFB322002F0D2FB002002F0CFFB552024
:1024800002F0CCFB002002F0C9FB762002F0C6FB74
:10249000002002F0C3FB662002F0C0FB002002F027
:1024A000BDFB672002F0BAFB002002F0B7FB6720FB
:1024B00002F0B4FB002002F0B1FB872002F0AEFB7B
:1024C000002002F0ABFB992002F0A8FB002002F0F4
:1024D000A5FBBB2002F0A2FB002002F09FFB99208D
:1024E00002F09CFB002002F099FB772002F096FBA3
:1024F000002002F093FB442002F090FB002002F049
:102500008DFB562002F08AFB002002F087FB23207F
:1025100002F084FB002002F081FB332002F07EFBFE
:10252000002002F07BFB452002F078FB002002F047
:1025300075FBE82002F078FB002002F06FFB002022
:1025400002F06CFB992002F069FB002002F066FBB0
:10255000872002F063FB002002F060FB882002F07D
:102560005DFB002002F05AFB772002F057FB0020B1
:1025700002F054FB662002F051FB002002F04EFBFB
:10258000882002F04BFB002002F048FBAA2002F05A
:1025900045FB002002F042FBBB2002F03FFB002085
:1025A00002F03CFB992002F039FB002002F036FBE0
:1025B000662002F033FB002002F030FB552002F0D1
:1025C0002DFB002002F02AFB552002F027FB002003
:1025D00002F024FB442002F021FB002002F01EFB4D
:1025E000442002F01BFB002002F018FB552002F0F3
:1025F00015FB002002F012FBE92002F015FBAA20D7
:1026000002F00CFB002002F009FB002002F006FBA8
:10261000002002F003FB002002F006FBAA2002F0DB
:10262000FDFACF2002F000FB002002F0F7FA0020B4
:1026300002F0F4FA002002F0F1FA002002F0EEFAC3
:10264000002002F0EBFA002002F0E8FA002002F08D
:10265000E5FA002002F0E2FA002002F0DFFA0020A2
:1026600002F0DCFA002002F0D9FA002002F0D6FADB
:10267000002002F0D3FA002002F0D0FA002002F08D
:10268000CDFA002002F0CAFA002002F0C7FAF020CA
:1026900002F0CAFA002002F0C1FA502002F0BEFA9D
:1026A000002002F0BBFA002002F0B8FA002002F08D
:1026B000B5FAF32002F0B8FA002002F0AFFAF920E0
:1026C00002F0B2FA062002F0A9FA102002F0A6FAEF
:1026D000292002F0A3FA002002F0A0FA3A2002F02A
:1026E000A3FA552002F09AFA112002F09DFA21680F
:1026F00064208847292002F097FA352002F094FAE6
:10270000002002F08BFA512002F08EFAFF2002F036
:1027100085FA532002F088FA2C2002F07FFA552027
:1027200002F082FA822002F079FA2C20FDE34FF4C5
:1027300070455521284602F087FA6E1CAA213046C2
:1027400002F082FAAF1C5221384602F07DFA4FF2B5
:1027500003080821404602F077FA4FF204090121EC
:10276000484602F071FA0D214FF4304002F06CFA45
:102770000D214BF2010002F067FA0D214BF202002D
:1027800002F062FA4FF4364A3421504602F05CFA05
:1027900034214BF2016002F057FA34214BF202600F
:1027A00002F052FA4FF4314B0D21584602F04CFA28
:1027B0000D214BF2011002F047FA0D214BF20210ED
:1027C00002F042FA34214FF4374002F03DFA34214E
:1027D0004BF2017002F038FA34214BF2027002F031
:1027E00033FA00214FF4324002F02EFA00214BF26E
:1027F000012002F029FA00214BF2022002F024FA13
:1028000024214FF4384002F01FFA24214BF6010036
:1028100002F01AFA24214BF6020002F015FA012107
:102820004FF43F4002F010FA0F214FF4334002F012
:102830000BFA0F214BF2013002F006FA0F214BF296
:10284000023002F001FA34214FF4394002F0FCF971
:1028500034214BF6011002F0F7F934214BF6021047
:1028600002F0F2F908214FF4354002F0EDF90821A9
:102870004BF2015002F0E8F908214BF2025002F04D
:10288000E3F903214FF4424002F0DEF924214FF432
:102890003A4002F0D9F924214BF6012002F0D4F994
:1028A00024214BF6022002F0CFF900214FF43C40E6
:1028B00002F0CAF978214BF6014002F0C5F9002177
:1028C0004BF6024002F0C0F900214FF43D4002F007
:1028D000BBF978214BF6015002F0B6F900214BF616
:1028E000025002F0B1F900214FF43E4002F0ACF981
:1028F00064214BF6016002F0A7F900214FF451402A
:1029000002F0A2F933214DF2011002F09DF90021ED
:102910004DF2021002F098F934214DF2031002F04A
:1029200093F900214DF2041002F08EF93A214DF294
:10293000051002F089F900214DF2061002F084F929
:102940004A214DF2071002F07FF900214DF20810E4
:1029500002F07AF95C214DF2091002F075F90021BC
:102960004DF20A1002F070F981214DF20B1002F0C5
:102970006BF900214DF20C1002F066F9A6214DF220
:102980000D1002F061F900214DF20E1002F05CF919
:10299000E5214DF20F1002F057F901214DF2101010
:1029A00002F052F913214DF2111002F04DF90121FC
:1029B0004DF2121002F048F954214DF2131002F0BA
:1029C00043F901214DF2141002F03EF982214DF23B
:1029D000151002F039F901214DF2161002F034F908
:1029E000CA214DF2171002F02FF902214DF21810F2
:1029F00002F02AF900214DF2191002F025F9022106
:102A00004DF21A1002F020F901214DF21B1002F0D4
:102A10001BF902214DF21C1002F016F934214DF27F
:102A20001D1002F011F902214DF21E1002F00CF9F6
:102A300067214DF21F1002F007F902214DF220101C
:102A400002F002F984214DF2211002F0FDF802217A
:102A50004DF2221002F0F8F8A4214DF2231002F0FA
:102A6000F3F802214DF2241002F0EEF8B7214DF2F6
:102A7000251002F0E9F802214DF2261002F0E4F8E8
:102A8000CF214DF2271002F0DFF802214DF228107D
:102A900002F0DAF8DE214DF2291002F0D5F8022119
:102AA0004DF22A1002F0D0F8F2214DF22B1002F074
:102AB000CBF802214DF22C1002F0C6F8FE214DF2A7
:102AC0002D1002F0C1F803214DF22E1002F0BCF8D7
:102AD00010214DF22F1002F0B7F803214DF2301003
:102AE00002F0B2F833214DF2311002F0ADF80321BB
:102AF0004DF2321002F0A8F86D214DF2331002F0C1
:102B0000A3F800214FF4524002F09EF833214DF219
:102B1000012002F099F800214DF2022002F094F811
:102B200034214DF2032002F08FF800214DF20420F1
:102B300002F08AF83A214DF2052002F085F80021D2
:102B40004DF2062002F080F84A214DF2072002F0F3
:102B50007BF800214DF2082002F076F85C214DF25E
:102B6000092002F071F800214DF20A2002F06CF801
:102B700081214DF20B2002F067F800214DF20C206C
:102B800002F062F8A6214DF20D2002F05DF800215E
:102B90004DF20E2002F058F8E5214DF20F2002F020
:102BA00053F801214DF2102002F04EF813214DF29E
:102BB000112002F049F801214DF2122002F044F8F0
:102BC00054214DF2132002F03FF801214DF2142060
:102BD00002F03AF882214DF2152002F035F8012179
:102BE0004DF2162002F030F8CA214DF2172002F003
:102BF0002BF802214DF2182002F026F800214DF2A8
:102C0000192002F021F802214DF21A2002F01CF8DE
:102C100001214DF21B2002F017F802214DF21C2079
:102C200002F012F834214DF21D2002F00DF80221BD
:102C30004DF21E2002F008F867214DF21F2002F02D
:102C400003F802214DF2202001F0FEFF84214DF215
:102C5000212001F0F9FF02214DF2222001F0F4FFC2
:102C6000A4214DF2232001F0EFFF02214DF2242098
:102C700001F0EAFFB7214DF2252001F0E5FF022126
:102C80004DF2262001F0E0FFCF214DF2272001F088
:102C9000DBFF02214DF2282001F0D6FFDE214DF2AC
:102CA000292001F0D1FF02214DF22A2001F0CCFFB2
:102CB000F2214DF22B2001F0C7FF02214DF22C2012
:102CC00001F0C2FFFE214DF22D2001F0BDFF0321D6
:102CD0004DF22E2001F0B8FF10214DF22F2001F00F
:102CE000B3FF03214DF2302001F0AEFF33214DF24E
:102CF000312001F0A9FF03214DF2322001F0A4FFA1
:102D00006D214DF2332001F09FFF00214FF453401D
:102D100001F09AFF33214DF2013001F095FF0021BF
:102D20004DF2023001F090FF34214DF2033001F0FA
:102D30008BFF00214DF2043001F086FF3A214DF265
:102D4000053001F081FF00214DF2063001F07CFFDB
:102D50004A214DF2073001F077FF00214DF2083093
:102D600001F072FF5C214DF2093001F06DFF00218E
:102D70004DF20A3001F068FF81214DF20B3001F075
:102D800063FF00214DF20C3001F05EFFA6214DF2F1
:102D90000D3001F059FF00214DF20E3001F054FFCB
:102DA000E5214DF20F3001F04FFF01214DF21030BF
:102DB00001F04AFF13214DF2113001F045FF0121CE
:102DC0004DF2123001F040FF54214DF2133001F06A
:102DD0003BFF01214DF2143001F036FF82214DF20C
:102DE000153001F031FF01214DF2163001F02CFFBA
:102DF000CA214DF2173001F027FF02214DF21830A1
:102E000001F022FF00214DF2193001F01DFF0221D7
:102E10004DF21A3001F018FF01214DF21B3001F084
:102E200013FF02214DF21C3001F00EFF34214DF250
:102E30001D3001F009FF02214DF21E3001F004FFA8
:102E400067214DF21F3001F0FFFE02214DF22030CC
:102E500001F0FAFE84214DF2213001F0F5FE02214D
:102E60004DF2223001F0F0FEA4214DF2233001F0AA
:102E7000EBFE02214DF2243001F0E6FEB7214DF2C7
:102E8000253001F0E1FE02214DF2263001F0DCFE9A
:102E9000CF214DF2273001F0D7FE02214DF228302C
:102EA00001F0D2FEDE214DF2293001F0CDFE0221EB
:102EB0004DF22A3001F0C8FEF2214DF22B3001F024
:102EC000C3FE02214DF22C3001F0BEFEFE214DF278
:102ED0002D3001F0B9FE03214DF22E3001F0B4FE89
:102EE00010214DF22F3001F0AFFE03214DF23030B2
:102EF00001F0AAFE33214DF2313001F0A5FE03218D
:102F00004DF2323001F0A0FE6D214DF2333001F070
:102F10009BFE00214FF4544001F096FE33214DF208
:102F2000014001F091FE002100E07AE34DF2024001
:102F300001F08AFE34214DF2034001F085FE0021AC
:102F40004DF2044001F080FE3A214DF2054001F0BF
:102F50007BFE00214DF2064001F076FE4A214DF243
:102F6000074001F071FE00214DF2084001F06CFEB7
:102F70005C214DF2094001F067FE00214DF20A404C
:102F800001F062FE81214DF20B4001F05DFE002157
:102F90004DF20C4001F058FEA6214DF20D4001F01B
:102FA00053FE00214DF20E4001F04EFEE5214DF2A0
:102FB0000F4001F049FE01214DF2104001F044FEA6
:102FC00013214DF2114001F03FFE01214DF212405C
:102FD00001F03AFE54214DF2134001F035FE01217B
:102FE0004DF2144001F030FE82214DF2154001F007
:102FF0002BFE01214DF2164001F026FECA214DF2B2
:10300000174001F021FE02214DF2184001F01CFE94
:1030100000214DF2194001F017FE02214DF21A4035
:1030200001F012FE01214DF21B4001F00DFE0221C4
:103030004DF21C4001F008FE34214DF21D4001F01C
:1030400003FE02214DF21E4001F0FEFD67214DF20C
:103050001F4001F0F9FD02214DF2204001F0F4FD86
:1030600084214DF2214001F0EFFD02214DF222407A
:1030700001F0EAFDA4214DF2234001F0E5FD02211B
:103080004DF2244001F0E0FDB7214DF2254001F062
:10309000DBFD02214DF2264001F0D6FDCF214DF29D
:1030A000274001F0D1FD02214DF2284001F0CCFD76
:1030B000DE214DF2294001F0C7FD02214DF22A40E8
:1030C00001F0C2FDF2214DF22B4001F0BDFD0221C5
:1030D0004DF22C4001F0B8FDFE214DF22D4001F0E3
:1030E000B3FD03214DF22E4001F0AEFD10214DF253
:1030F0002F4001F0A9FD03214DF2304001F0A4FD65
:1031000033214DF2314001F09FFD03214DF2324059
:1031100001F09AFD6D214DF2334001F095FD002143
:103120004FF4554001F090FD33214DF2015001F074
:103130008BFD00214DF2025001F086FD34214DF24D
:10314000035001F081FD00214DF2045001F07CFD9F
:103150003A214DF2055001F077FD00214DF2065065
:1031600001F072FD4A214DF2075001F06DFD002182
:103170004DF2085001F068FD5C214DF2095001F05C
:1031800063FD00214DF20A5001F05EFD81214DF2F8
:103190000B5001F059FD00214DF20C5001F054FD8F
:1031A000A6214DF20D5001F04FFD00214DF20E50C1
:1031B00001F04AFDE5214DF20F5001F045FD0121DE
:1031C0004DF2105001F040FD13214DF2115001F06D
:1031D0003BFD01214DF2125001F036FD54214DF21C
:1031E000135001F031FD01214DF2145001F02CFD7E
:1031F00082214DF2155001F027FD01214DF21650AC
:1032000001F022FDCA214DF2175001F01DFD0221EF
:103210004DF2185001F018FD00214DF2195001F047
:1032200013FD02214DF21A5001F00EFD01214DF265
:103230001B5001F009FD02214DF21C5001F004FD6C
:1032400034214DF21D5001F0FFFC02214DF21E50C1
:1032500001F0FAFC67214DF21F5001F0F5FC02214C
:103260004DF2205001F0F0FC84214DF2215001F08C
:10327000EBFC02214DF2225001F0E6FCA4214DF2BC
:10328000235001F0E1FC02214DF2245001F0DCFC5E
:10329000B7214DF2255001F0D7FC02214DF2265006
:1032A00001F0D2FCCF214DF2275001F0CDFC0221DC
:1032B0004DF2285001F0C8FCDE214DF2295001F0FA
:1032C000C3FC02214DF22A5001F0BEFCF2214DF266
:1032D0002B5001F0B9FC02214DF22C5001F0B4FC4E
:1032E000FE214DF22D5001F0AFFC03214DF22E5086
:1032F00001F0AAFC10214DF22F5001F0A5FC032192
:103300004DF2305001F0A0FC33214DF2315001F06C
:103310009BFC03214DF2325001F096FC6D214DF2E1
:10332000335001F091FC00214FF4564001F08CFC29
:1033300033214DF2016001F087FC00214DF2026063
:1033400001F082FC34214DF2036001F07DFC00218C
:103350004DF2046001F078FC3A214DF2056001F075
:1033600073FC00214DF2066001F06EFC4A214DF223
:10337000076001F069FC00214DF2086001F064FC77
:103380005C214DF2096001F05FFC00214DF20A6002
:1033900001F05AFC81214DF20B6001F055FC002137
:1033A0004DF20C6001F050FCA6214DF20D6001F0D1
:1033B0004BFC00214DF20E6001F046FCE5214DF280
:1033C0000F6001F041FC01214DF2106001F03CFC66
:1033D00013214DF2116001F037FC01214DF2126012
:1033E00001F032FC54214DF2136001F02DFC01215B
:1033F0004DF2146001F028FC82214DF2156001F0BD
:1034000023FC01214DF2166001F01EFCCA214DF291
:10341000176001F019FC02214DF2186001F014FC54
:1034200000214DF2196001F00FFC02214DF21A60EB
:1034300001F00AFC01214DF21B6001F005FC0221A4
:103440004DF21C6001F000FC34214DF21D6001F0D2
:10345000FBFB02214DF21E6001F0F6FB67214DF2ED
:103460001F6001F0F1FB02214DF2206001F0ECFB46
:1034700084214DF2216001F0E7FB02214DF2226030
:1034800001F0E2FBA4214DF2236001F0DDFB0221FB
:103490004DF2246001F0D8FBB7214DF2256001F018
:1034A000D3FB02214DF2266001F0CEFBCF214DF27D
:1034B000276001F0C9FB02214DF2286001F0C4FB36
:1034C000DE214DF2296001F0BFFB02214DF22A609E
:1034D00001F0BAFBF2214DF22B6001F0B5FB0221A5
:1034E0004DF22C6001F0B0FBFE214DF22D6001F099
:1034F000ABFB03214DF22E6001F0A6FB10214DF233
:103500002F6001F0A1FB03214DF2306001F09CFB24
:1035100033214DF2316001F097FB03214DF232600F
:1035200001F092FB6D214DF2336001F08DFB5521CE
:10353000284601F089FBAA21304601F085FB522183
:10354000384601F081FB0821404601F07DFB002157
:10355000484601F079FBCC21584601F075FB00216B
:103560004BF2011001F070FB0521504601F06CFB9D
:1035700070214FF4374001F067FB70214BF201706E
:1035800001F062FB01214FF4384001F05DFB0321A3
:103590004BF6010001F058FB03214BF6020001F04D
:1035A00053FB03214BF6030001F04EFB02214FF4C5
:1035B0003C4001F049FB00214BF6014001F044FB87
:1035C00000214BF6024001F03FFBD0214FF449406F
:1035D00001F03AFB02214CF6011001F035FB5021BD
:1035E0004CF6021001F030FB50214CF6031001F0B4
:1035F0002BFB50214CF6041001F026FB00214FF468
:10360000545001F021FB55214FF4685001F01CFB90
:103610004FF4885001F008FB2168782088474FF468
:10362000245001F001FBFDE347F6F001E52001F035
:103630000BFB2946012001F007FB3946022001F06F
:1036400003FB41F23001032001F0FEFA00210420C7
:1036500001F0FAFA4946082001F0F6FA00210920A3
:1036600001F0F2FA00210A2001F0EEFA00210C200C
:1036700001F0EAFA00210D2001F0E6FA00210F2006
:1036800001F0E2FA0021102001F0DEFA07211120FA
:1036900001F0DAFA0021122001F0D6FA00211320FD
:1036A00001F0D2FA0021072001F0CEFA41F2906138
:1036B000102001F0C9FA40F22721112001F0C4FACC
:1036C0009D21122001F0C0FA4FF4C851132001F0DF
:1036D000BBFA2521292001F0B7FA0D212B2001F09A
:1036E000B3FA0721302001F0AFFA40F20331312064
:1036F00001F0AAFA0321322001F0A6FA40F20621D5
:10370000352001F0A1FA0821362001F09DFA40F29F
:103710000641372001F098FA4FF44171382001F04A
:1037200093FA0721392001F08FFA40F202613C2020
:1037300001F08AFA08213D2001F086FA002150208C
:1037400001F082FAEF21512001F07EFA002152208F
:1037500001F07AFA5146532001F076FA4146602092
:1037600001F072FA0121612001F06EFA00216A2055
:1037700001F06AFA0021802001F066FA0021812020
:1037800001F062FA0021822001F05EFA002183201C
:1037900001F05AFA0021842001F056FA0021852018
:1037A00001F052FA1021902001F04EFA4FF4C0615E
:1037B000922001F049FA40F233110720FEE300BFE6
:1037C00041F28F01EC2001F03FFA41F23421EF2069
:1037D00001F03AFA2946012001F036FA3946022072
:1037E00001F032FA41F23001032001F02DFA0021FC
:1037F000042001F029FA4946082001F025FA0021A9
:10380000092001F021FA00210A2001F01DFA01210E
:103810000C2001F019FA00210D2001F015FA002109
:103820000F2001F011FA0021102001F00DFA0721FC
:10383000112001F009FA0021122001F005FA0021FF
:10384000132001F001FA0121072001F0FDF92168A0
:103850003220884741F29041102001F0F5F940F202
:103860002721112001F0F0F92168322088478A21B0
:10387000122001F0E9F92168322088474FF4D05135
:10388000132001F0E1F90621292001F0DDF90D21D5
:103890002B2001F0D9F9216832208847002120200F
:1038A00001F0D2F90021212001F0CEF92168322067
:1038B00088470021302001F0C7F940F2046131202F
:1038C00001F0C2F940F20531322001F0BDF90021CA
:1038D000352001F0B9F940F60941362001F0B4F97C
:1038E0004FF40171372001F0AFF940F20131382077
:1038F00001F0AAF93146392001F0A6F900213C2057
:1039000001F0A2F940F60A213D2001F09DF921685D
:10391000322088470021502001F096F9EF215120F4
:1039200001F092F90021522001F08EF95146532006
:1039300001F08AF941464DE10021084601F084F981
:103940002946012001F080F93946022001F07CF976
:1039500041F23001032001F077F90021042001F049
:1039600073F94946082001F06FF90021092001F0A0
:103970006BF900210A2001F067F901210C2001F008
:1039800063F900210D2001F05FF900210F2001F003
:103990005BF921683220884740F20111072001F0CD
:1039A00053F92168322088474FF48651102001F0E6
:1039B0004BF90721112001F047F9444641461220F6
:1039C00001F042F94FF43061132001F03DF900217C
:1039D000292001F039F944F210012B2001F034F9CB
:1039E0000021502001F030F9EF21512001F02CF995
:1039F0000021522001F028F95146532001F024F90A
:103A00005946602001F020F90121612001F01CF9E4
:103A100000216A2001F018F90021802001F014F93A
:103A20000021812001F010F90021822001F00CF921
:103A30000021832001F008F90021842001F004F91D
:103A40000021852001F000F91021902001F0FCF800
:103A50000021922001F0F8F80121932001F0F4F800
:103A60002146952001F0F0F80021972001F0ECF8B4
:103A70000021982001F0E8F840F27311072075E367
:103A800041F21401E72001F0DFF82946012001F09E
:103A9000DBF84FF40071022001F0D6F841F2380152
:103AA000032001F0D1F84946082001F0CDF80021AB
:103AB000092001F0C9F800210A2001F0C5F8002111
:103AC0000C2001F0C1F800210D2001F0BDF800210B
:103AD0000F2001F0B9F80021102001F0B5F80721FE
:103AE000112001F0B1F80021122001F0ADF8002101
:103AF000132001F0A9F82168C820884741F290619D
:103B0000102001F0A1F840F22721112001F09CF8CB
:103B10002168322088470C21122001F095F8216895
:103B2000322088474FF40061132001F08DF81121F5
:103B3000292001F089F80B212B2001F085F821685C
:103B4000322088470021202001F07EF8544651465B
:103B5000212001F079F80021302001F075F84FF4B0
:103B600083752946312001F06FF80021322001F0E1
:103B70006BF84FF40171352001F066F841F20A61EB
:103B8000362001F061F83146372001F05DF8294612
:103B9000382001F059F83146392001F055F840F24B
:103BA00002413C2001F050F840F60F413D2001F069
:103BB0004BF80021502001F047F8EF21512001F08F
:103BC00043F80021522001F03FF82146532001F034
:103BD0003BF85946602001F037F80121612001F0DF
:103BE00033F800216A2001F02FF80021802001F035
:103BF0002BF80021812001F027F80021822001F01C
:103C000023F80021832001F01FF80021842001F017
:103C10001BF80021852001F017F81021902001F0F9
:103C200013F84FF4C0619220FEE32946012001F011
:103C30000BF83946022001F007F841F23001032069
:103C400001F002F80021042000F0FEFF40F20721FD
:103C5000082000F0F9FF0021092000F0F5FF002105
:103C60000A2000F0F1FF00210C2000F0EDFF002100
:103C70000D2000F0E9FF00210F2000F0E5FF216892
:103C80001420884741F2B061102000F0DDFF0121CF
:103C9000112000F0D9FF0121172000F0D5FF4FF4CB
:103CA0009C71122000F0D0FF4FF40061132000F04F
:103CB000CBFF0921292000F0C7FF09212A2000F0AD
:103CC000C3FF0021A42000F0BFFF0021502000F01E
:103CD000BBFFEF21512000F0B7FF0021522000F080
:103CE000B3FF5146532000F0AFFF5946602000F06B
:103CF000ABFF0121612000F0A7FF00216A2000F046
:103D0000A3FF0021802000F09FFF0021812000F010
:103D10009BFF0021822000F097FF0021832000F00C
:103D200093FF0021842000F08FFF0021852000F008
:103D30008BFF1321902000F087FF0021922000F0DC
:103D400083FF0321932000F07FFF4146952000F080
:103D50007BFF40F27311072000F076FF322007E16D
:103D60000021072000F070FF2168322088474FF4BF
:103D70008E71122000F068FF0121A42000F064FF82
:103D80000F21082000F060FF08210A2000F05CFFEE
:103D900008210D2000F058FF3146302000F054FF7C
:103DA0000721312000F050FF40F20361322000F083
:103DB0004BFF3946332000F047FF4946342000F0DE
:103DC00043FF0221352000F03FFF41F60F713620FE
:103DD00000F03AFF3146372000F036FF002138204E
:103DE00000F032FF0021392000F02EFF31463A204A
:103DF00000F02AFF00213B2000F026FF07213C2095
:103E000000F022FF00213D2000F01EFF216832203B
:103E100088470121072000F017FF0121172000F03B
:103E200013FF00E020E32168322088474FF4BD51A2
:103E3000102000F009FF40F21721112000F004FFCC
:103E40004FF48F71122000F0FFFE4FF470611320C9
:103E500000F0FAFE00212A2000F0F6FE0A212920B7
:103E600000F0F2FE4FF49F71122000F0EDFE0021F1
:103E7000502000F0E9FEEF21512000F0E5FE002186
:103E8000522000F0E1FE5146532000F0DDFE59467D
:103E9000602000F0D9FE0121612000F0D5FE002154
:103EA0006A2000F0D1FE0021802000F0CDFE00212C
:103EB000812000F0C9FE0021822000F0C5FE002113
:103EC000832000F0C1FE0021842000F0BDFE00210F
:103ED000852000F0B9FE1321902000F0B5FE414688
:103EE000922000F0B1FE0521932000F0ADFE0021EC
:103EF000952000F0A9FE0021972000F0A5FE0021EA
:103F0000982000F0A1FE2946012000F09DFE3946D0
:103F1000022000F099FE41F23801032000F094FEE7
:103F20000021042000F090FE00210C2000F08CFE07
:103F300000210F2000F088FE0021202000F084FEE8
:103F40000021212000F080FE2121072000F07CFECE
:103F50002168142088476121072000F075FE216840
:103F60001420884740F27311072000F06DFE1420E2
:103F700021688847D8E30021084600F065FE00214B
:103F8000084600F061FE0021084600F05DFE0021B9
:103F9000084600F059FE0121A42000F055FE2168DA
:103FA000142088475946602000F04EFE4E46494690
:103FB000082000F049FE4FF4057100E0D2E0302007
:103FC00000F042FE43F21571312000F03DFE40F258
:103FD0000461322000F038FE40F61661332000F014
:103FE00033FE42F21121342000F02EFE4FF4A8518E
:103FF000352000F029FE48F20751362000F024FE5B
:1040000041F20741372000F01FFE41F20341382002
:1040100000F01AFE2021392000F016FE1A2190200F
:1040200000F012FE0021102000F00EFE07211120EA
:1040300000F00AFE0021122000F006FE00211320ED
:1040400000F002FE2168142088474FF4E66110203A
:1040500000F0FAFD40F23711112000F0F5FD216863
:10406000142088474FF4DC71122000F0EDFD216828
:10407000142088474FF47061132000F0E5FD802183
:104080002A2000F0E1FD4821292000F0DDFD216813
:10409000142088472946012000F0D6FD3946022029
:1040A00000F0D2FD41F23801032000F0CDFD314691
:1040B000082000F0C9FD00210A2000F0C5FD002104
:1040C0000C2000F0C1FD00210D2000F0BDFD3021CD
:1040D0000E2000F0B9FD0021502000F0B5FDEF21C9
:1040E000512000F0B1FD0021522000F0ADFD5146FD
:1040F000532000F0A9FD5946602000F0A5FD0121E4
:10410000612000F0A1FD00216A2000F09DFD112139
:10411000902000F099FD4FF4C061922000F094FDD2
:1041200040F20241932000F08FFD0221942000F024
:104130008BFD2168142088470121072000F084FDB1
:104140002168142088476121072000F07DFD40F29E
:104150007311072000F078FD0021202000F074FD8D
:104160000021212000F070FD222100207AE10021B1
:10417000084600F069FD0021084600F065FD216851
:10418000142088470021084600F05EFD0021084603
:1041900000F05AFD0021084600F056FD00210846B7
:1041A00000F052FD0121A42000F04EFD21681420F2
:1041B00088475946602000F047FD40F60601082078
:1041C00000F042FD40F203773946302000F03CFD1C
:1041D0000121312000F038FD0421322000F034FDAF
:1041E0004FF48171332000F02FFD464641463420C4
:1041F00000F02AFD40F20311352000F025FD1F21BB
:10420000362000F021FD3946372000F01DFD012148
:10421000382000F019FD0421392000F015FD15218A
:10422000902000F011FD4FF48261102000F00CFD91
:1042300040F24721112000F007FD4FF4DE711220FB
:1042400000F002FD4FF46061132000F0FDFC2168D6
:10425000782088472946012000F0F6FC4FF40071D1
:10426000022000F0F1FC41F23001032000F0ECFCF0
:1042700008210A2000F0E8FC00210C2000F0E4FCFA
:1042800020210E2000F0E0FC00210F2000F0DCFCDB
:104290000021202000F0D8FC0021212000F0D4FCD7
:1042A0003D212A2000F0D0FC2168142088472D21D0
:1042B000292000F0C9FC0021502000F0C5FC4DF27F
:1042C000EF01512000F0C0FC0021522000F0BCFCA6
:1042D0005146532000F0B8FC0021612000F0B4FCEE
:1042E00000216A2000F0B0FC3146922000F0ACFCC6
:1042F0000521932000F0A8FC2946FFF7BFBB012150
:10430000002000F0A1FC21680A20884741F22861C2
:10431000102000F099FC0E21122000F095FC40F6D0
:104320003921132000F090FC21680A2088474021A1
:10433000112000F089FC5021152000F085FC216837
:104340000A2088471E21122000F07EFC21680A20E6
:1043500088474FF4B151102000F076FC42F6392125
:10436000132000F071FC21680A20884729460120AB
:1043700000F06AFC4146022000F066FC41F2380180
:10438000032000F061FC4946082000F05DFC082194
:104390000A2000F059FC0021302000F055FC40F2CA
:1043A0000241312000F050FC4FF48371322000F0C4
:1043B0004BFC40F20351332000F046FC4FF4827175
:1043C000342000F041FC40F20131352000F03CFC8B
:1043D0003146362000F038FC40F20531372000F03D
:1043E00033FC4FF40271382000F02EFC40F60B71C4
:1043F000392000F029FC0221412000F025FC59461B
:10440000602000F021FC0121612000F01DFC4FF430
:104410000471902000F018FC4FF48571922000F098
:1044200013FC0421932000E0C1E000F00DFC2946BC
:10443000A02000F009FC0121072000F005FC21214B
:10444000072000F001FC2321072000F0FDFB3321B1
:10445000072000F0F9FB40F23311072000F0F4FBD5
:104460000021A02000F0F0FB5EE13021152000F0DB
:10447000EBFB10219A2000F0E7FB2021112000F037
:10448000E3FB43F22841102000F0DEFB0221122062
:1044900000F0DAFB41F23801132000F0D5FB21686F
:1044A000282088471221084600F0CEFB21682820EA
:1044B000884743F22041102000F0C6FB43F2380148
:1044C000132000F0C1FB21684620884700213020DE
:1044D00000F0BAFB40F20241312000F0B5FB40F29F
:1044E0000731322000F0B0FB4FF44171332000F06F
:1044F000ABFB0421342000F0A7FB40F20141352042
:1045000000F0A2FB3146362000F09EFB40F2053160
:10451000372000F099FB4FF4C2642146382000F0A8
:1045200093FB2146392000F08FFB2946012000F043
:104530008BFB4146022000F087FB41F23001032053
:1045400000F082FB40F60801082000F07DFB082106
:104550000A2000F079FB5946602000F075FB01212C
:10456000612000F071FB4FF49F71902000F06CFB14
:104570002946922000F068FB2946932000F064FB56
:104580004FF44051A02000F05FFB1021A32000F069
:104590005BFB0121072000F057FB2121072000F0E1
:1045A00053FB2321072000F04FFB3321072000F0AD
:1045B0004BFB40F23311A0E6E22000F035FB1D205A
:1045C00000F02CFB022000F029FB042000F026FB69
:1045D00021680A208847E02000F026FB012000F037
:1045E0001DFB21680A208847E02000F01DFB032006
:1045F00000F014FB21680C208847012000F014FB18
:1046000021680A208847E62000F00EFB2F2000F0EA
:1046100005FBFF2000F002FBFF2000F0FFFAB020B6
:1046200000F002FB202000F0F9FA002000F0F6FA7A
:10463000032000F0F3FA40F21F3000F0EFFA0120FF
:1046400000F0ECFA40F2DF1000F0E8FA002000F091
:10465000E5FAB42000F0E8FA042000F0DFFA40F2B6
:104660001F4000F0DBFA002000F0D8FA2E2000F006
:10467000D5FA002000F0D2FA002000F0CFFA002096
:1046800000F0CCFA002000F0C9FAB62000F0CCFA15
:10469000022000F0C3FA4FF4037000F0BFFA0020CC
:1046A00000F0BCFA172000F0B9FA152000F0B6FAB5
:1046B000002000F0B3FA002000F0B0FAF02000F083
:1046C000B3FA032000F0AAFA292000F0ADFAD020B6
:1046D00000F0AAFA002000F0A1FABE2000F0A4FA2F
:1046E000052000F09BFAFE2000F098FA012000F06F
:1046F00095FA002000F092FA002000F08FFA0020D6
:1047000000F08CFAB82000F08FFA032000F086FA4F
:10471000012000F083FABA2000F086FA012000F0B0
:104720007DFA642000F01AF80020FCF767FCBDE871
:10473000F05F4FF6FF70FCF72BBC0000034808B594
:104740000088ADF80000BDF8000008BD0008006C4E
:1047500001490880FFF7F2BFFE07006C10B5044660
:10476000BE2000F061FA052000F058FA2046FBF761
:10477000A1FD4FF066320B4BFBF72AFDFBF7A7FDBF
:1047800080B200F04BFA012000F048FAFF2000F060
:1047900045FA002000F042FABDE81040002000F089
:1047A0003DBA0000666604402DE9F0417E4D0024CC
:1047B0002946AB79898846F6040241F66317012B36
:1047C00001D02BB11DE091421BD0B94202D118E0BB
:1047D000B94216D1082814D2DFE800F00406080A0E
:1047E0000C0E101206200CE007200AE0042008E05E
:1047F000052006E0012004E0002002E0032000E0A4
:104800000220A1F5134C45F2103345F21056BCF1CD
:10481000410C07D0914205D0994203D0B14201D05A
:10482000B9427BD1082812D2DFE800F01104060853
:104830000A0C0E1080240AE0402408E0C02406E0A0
:10484000202404E0602402E0A02400E0E024B1423F
:1048500002D14FF4585000E03620994205D0B142C1
:1048600003D0B94201D044F00804914201D144F090
:104870000204214600F0E8F9A988B9420AD0A0064E
:1048800028886A8802D5904202D303E0904201D979
:104890002A8068806889B14241D100F0C5F90020C2
:1048A00000F0BCF96889401C80B200F0BDF900201E
:1048B00000F0B4F96889801C80B200F0B5F928884E
:1048C000401EC0F30F2000F0A9F96889C01C80B217
:1048D00000F0AAF92878401EC0B200F09FF9A8891C
:1048E00000F0A2F9002000F099F9A889401C80B2DC
:1048F00000F09AF9002000F091F9A889801C80B29C
:1049000000F092F96888401EC0F30F2000F086F98D
:10491000A889C01C80B200F087F922E028E000F0EE
:1049200083F9002000F07AF9002000F077F9288858
:10493000401EC0F30F2000F071F92878401EC0B26D
:1049400000F06CF9A88900F06FF9002000F066F91A
:10495000002000F063F96888401EC0F30F2000F0CB
:104960005DF9A878BDE8F041401EC0B200F056B92C
:10497000082812D2DFE800F0040608110A0C0E1015
:1049800030240AE0102408E0202406E0382404E063
:10499000282402E0182400E0082444F48051BDE8F3
:1049A000F041032000F050B9500200202DE9F04101
:1049B0004F4C0E4605464FEA1128A08821462F0A83
:1049C0004A89A0F51343413B1AD0A0F5A6411039FE
:1049D00016D02346A0F5D04C99791B885B1B5B1E33
:1049E000BCF1040C11D0A0F5C85CBCF1630C20D064
:1049F000A0F5A04CBCF5A26C55D001296DD06DE09E
:104A0000104600F011F9384606E0012900D19DB2A8
:104A1000104600F009F9280A00F000F9E8B200F0A9
:104A2000FDF8A08900F000F9404600F0F7F8F0B278
:104A300026E049B3104600F0F7F8384600F0EEF8EB
:104A4000E8B200F0EBF82088401EC0F30F2000F021
:104A5000E5F82078401EC0B200F0E0F8A08900F030
:104A6000E3F8404600F0DAF8F0B200F0D7F86088DA
:104A7000401EC0F30F2000F0D1F8A078401EC0B255
:104A8000BDE8F04100F0CAB89DB2104600F0CCF885
:104A9000002000F0C3F8002000F0C0F8280A00F061
:104AA000BDF8E8B2D8E7104600F0BEF8384600F08E
:104AB000B5F86089401C80B200F0B6F8E8B200F0AA
:104AC000ADF8A08900F0B0F8404600F0A7F8A08942
:104AD000401C80B200F0A8F8A9E79DB22946104614
:104AE00000F0B2F8A0893146BDE8F04100F0ACB862
:104AF000500200202DE9FF5F1D460C468A465807EC
:104B000000D0012000EBD50069084843203A00F0AE
:104B1000FF09D0B20026DFF898B0029044E00C2DD7
:104B200011D0102D14D0182D40D10298214900EB3E
:104B3000C00000BF01EB80004FF00008875D380621
:104B40000BD51D480CE002981C4900EB4000F1E732
:104B50001B49029801EB0010EEE70E9828B919489E
:104B6000214602880098FCF7E3FA7806070E641CD9
:104B7000BBF80200A4B2A04218D9A4EB0A00A842D4
:104B800009D100985446401C80B20090BBF8001038
:104B900081420BD906E008F1010000F0FF08B8F1EE
:104BA000080FCCD3761CF6B24E45B8D3BDE8FF9FB4
:104BB00050020020305D000820000020CC52000888
:104BC00040570008220000202DE9F84F044600F06D
:104BD000FF0910190D46DDE90AB61FFA80F85819C9
:104BE00087B24FF0000A12E0444503D305EB0B00F7
:104BF0004C4685B2BD420FD25B4629462046CDF8D1
:104C000000A0FFF777FF04EB5B0084B2761C3278DC
:104C1000A2F120005E28E7D9BDE8F88F014908809D
:104C2000704700000008006C0149088070470000D0
:104C3000FE07006C024803490089088070470000A5
:104C400050020020FE07006C024A1080901C018078
:104C500070470000FE07006C00B58FB01C2168464D
:104C6000FBF7ABFA1C2107A8FBF7A7FA1C484FF08B
:104C70002041102201601B49416006218160002112
:104C8000C160C0E904128161C16113020162C0E91F
:104C900009139302C0E90B134163816305230F20BD
:104CA000CDE90231CDE9001004921123CDE905319F
:104CB000CDE907100DF1240C03208CE80F000D91B5
:104CC00007AA69460648FCF7D5F808B1FBF7FAFBD6
:104CD0000548C16941F48061C1610FB000BD0000A9
:104CE00008020020040100A0000001402DE9F04767
:104CF00086B0002449480094019402940394816989
:104D000041F040018161816901F0400104918169B4
:104D100041F004018161816901F00401049181691C
:104D200041F008018161816901F008010491816904
:104D300041F480718161816901F48071049181691C
:104D400041F0200181618069DFF8D49000F02000FB
:104D50000490002220214846FBF78EFDDFF8C4A016
:104D6000012211465046FBF787FD00224FF4907157
:104D70005046FBF781FD1C2000902B480126CDE911
:104D8000010669464846FBF77BFC20274FF01108D7
:104D9000CDE90078022569464846CDE90245FBF792
:104DA0006FFC22480096CDE9010569462048FBF7D3
:104DB00067FC40F20110CDE9000669465046CDE996
:104DC0000245FBF75DFCCDE9007869465046CDE928
:104DD0000245FBF755FC002211460620FBF7BCFDFF
:104DE0000620FBF7ABFD002211460820FBF7B4FDBF
:104DF0000820FBF7A3FD002211460920FBF7ACFDBC
:104E00000920FBF79BFD002211460A20FBF7A4FDB9
:104E10000A20FBF793FD06B0BDE8F08700100240C2
:104E200000180140000C014000002110000011108A
:104E300000080140FEE7704770477047FBF728BD48
:104E400030B58FB028216846FBF7B7F914210AA8BE
:104E5000FBF7B3F901210804CDE900100024029406
:104E600002250491CDE907504FF4E01009906846FF
:104E7000FBF770FE0F20CDE90A056802CDE90C4072
:104E800002210AA80E94FBF799FD0FB030BD7047C0
:104E9000FEE70907090E002804DB00F1E02080F896
:104EA0000014704700F00F0000F1E02080F8141D9E
:104EB000704702E008C8121F08C1002AFAD17047E3
:104EC0007047002001E001C1121F002AFBD170478A
:104ED0002DE9F043DFF8889022480321D9E90554F1
:104EE000D9F8047001237A1802EB420600EB06168B
:104EF00016F803C0BCF1000F05D0BCF1080F02D0BA
:104F00005B1C2F2BF4DB2F2B23D101234FF0000C44
:104F100006F803C05B1C2F2BFADBC8236434B4FBF8
:104F2000F3F603FB164303B96D1C012316460AE092
:104F300006EB460C00EB0C1C0CEB0308761E18F875
:104F4000308C0CF80380072EF2DA5B1C2F2BEDDB84
:104F5000491C491EC6D5C9E90554BDE8F0830000C7
:104F6000240000205E02002030B40D4A0D4C0021C8
:104F70005368126803EB430304EB0313445C2CB146
:104F800054181C4414F8304C082C05D0491C042932
:104F9000F4DB30BC0020704730BC00F08BB8000060
:104FA000240000205E0200202DE9F047824649B12E
:104FB000012904D0022907D10022012304E00022A4
:104FC000531E01E001220023DFF85890164F002104
:104FD000D9E9005404EB010C94440CEB4C0C002078
:104FE0000AEB810607EB0C1C16F80080B8F1000FE5
:104FF0000AD005EB000898441CF80880B8F1000FAF
:1050000002D00020BDE8F087401C0428ECDB491CDE
:105010000429DFDBA118C9F80410E9180120C9F838
:105020000010EFE7240000205E020020F0B50F49D9
:105030000022DFF83CE0D1E9007516460021AC18EB
:1050400004EB440400EB82030EEB041413F801C0DC
:10505000BCF1000F03D007EB010C04F80C60491CF5
:105060000429F3DB521C042AE8DBF0BD24000020F5
:105070005E020020F0B50D49DFF834E00022D1E9EE
:1050800000750021AC1804EB440400EB82030EEB26
:1050900004145E5C1EB107EB010C04F80C60491CA3
:1050A0000429F6DB521C042AEBDBF0BD24000020AF
:1050B0005E0200201CB54FF6FF70FBF769FF06A1EA
:1050C0000C20CDE9000164239A004FF496710A2068
:1050D000FFF77AFD01201CBD47414D45204F564545
:1050E000522E2E2E0000000070B5234D0646A5F16D
:1050F0002004A068216905EB801000EB0110FFF788
:10510000B9FF00F08FF8A068216905EB801000EB73
:105110000110FFF78BFFA068216905EB801000EB01
:1051200001100021FFF740FF002824D1E0698047EB
:10513000A068216905EB801000EB0110FFF714FF58
:105140003060A068216905EB801000EB0110FFF7CB
:1051500091FF00F067F8FFF7BBFE00250726C4E9C2
:105160000065E068A060FBF70FF890FBF6F106FB26
:105170001100C4E9030570BD4400002070B5154C52
:1051800000210822E061144843184254491C83F866
:10519000D02E3029F8DB002101EB410300EB031393
:1051A000491C1A7083F82F205029F5DB0B48FAF7B9
:1051B000F5FFFAF7E9FF072590FBF5F105FB110074
:1051C000A060FAF7E1FF90FBF5F105FB1100E0604C
:1051D00070BD0000240000205E020020AB772C028E
:1051E000FBF75EFBFFF72CFEFFF780FDFFF734FDBA
:1051F0000948FCF701F90948FFF7C0FF084D4FF4D3
:105200002F7428680028FCD10548FFF76DFF204661
:10521000FBF7CEF9F5E70000B105000855040008DA
:105220000000002070B54FF6FF70FBF7B1FE0A4E8C
:105230000025002404EB440006EB0010405D18B18B
:10524000A1B2A8B2FBF71CF9641C502CF2DB6D1C58
:10525000302DEEDB70BD00005E020020F0B5154B76
:10526000DFF854E00022D3E900760021B51805EB01
:10527000450500EB82040EEB051500BF14F801C0D4
:10528000BCF1000F06D007EB010C15F80CC0BCF107
:10529000000F0ED1491C0429F0DB521C042AE4DB68
:1052A0001869401CC11700EB917121F00301401AED
:1052B0001861F0BD240000205E0200200000000004
:1052C00000000000010203040607080900000000B6
:1052D0000000000000000000000000003F4000004F
:1052E00000000000000030004000300040000000DE
:1052F00009000BC03D000BC03D00090018C0244050
:105300007FE0224031800000180024C01B000D8087
:105310003240018003801C4027401C800740004031
:10532000100060000000000000000000000000000D
:1053300000001F80204040200000402020401F80AF
:1053400000000000090006001F80060009000000A0
:10535000040004003F80040004000000001000600E
:10536000000000000000000004000400040004002D
:1053700004000000000000400000000000000000E9
:10538000002001C006003800400000001F802040BF
:10539000204020401F800000000010403FC000401F
:1053A0000000000018C021402240244018400000A6
:1053B00010802040244024401B80000002000D008B
:1053C00011003FC0014000003C80244024402440A4
:1053D000238000001F8024402440344003800000CC
:1053E0003000200027C03800200000001B8024402F
:1053F000244024401B8000001C0022C02240224088
:105400001F800000000000000840000000000000B5
:105410000000000004600000000000000000040024
:105420000A0011002080404009000900090009001D
:105430000900000000004040208011000A00040024
:105440001800200023402400180000001F80204086
:10545000274029401F400000004007C039000F00CE
:1054600001C0004020403FC0244024401B80000079
:105470001F802040204020403080000020403FC05E
:10548000204020401F80000020403FC024402E408C
:1054900030C0000020403FC024402E0030000000FB
:1054A0000F001080204022403380020020403FC087
:1054B000040004003FC02040204020403FC0204066
:1054C000204000000060202020203FC0200020005D
:1054D00020403FC024400B0030C0204020403FC04F
:1054E00020400040004000C03FC03C0003C03C00E2
:1054F0003FC0000020403FC00C4023003FC02000C0
:105500001F802040204020401F80000020403FC0DE
:1055100024402400180000001F802140214020E08A
:105520001FA0000020403FC02440260019C00040BA
:1055300018C0244024402240318000003000204028
:105540003FC020403000000020003F80004000406D
:105550003F80200020003E0001C0070038002000EE
:10556000380007C03C0007C038000000204039C0A8
:10557000060039C0204000002000384007C03840F5
:1055800020000000304021C02640384020C00000EC
:10559000000000007FE0402040200000000070007C
:1055A0000C000380004000000000402040207FE00D
:1055B000000000000000200040002000000000006B
:1055C000001000100010001000100010000000007B
:1055D000400000000000000000000280054005407F
:1055E00003C0004020003FC004400440038000008E
:1055F00000000380044004400640000000000380D7
:10560000044024403FC000400000038005400540A6
:1056100003400000000004401FC02440244020003C
:10562000000002E0055005500650042020403FC015
:105630000440040003C000400000044027C00040B4
:105640000000000000100010041027E0000000001F
:1056500020403FC00140070004C0044020402040DB
:105660003FC000400040000007C0040007C0040025
:1056700003C00000044007C00440040003C0004011
:10568000000003800440044003800000041007F081
:1056900004500440038000000000038004400450D4
:1056A00007F00010044007C002400400040000009E
:1056B000000006400540054004C000000000040052
:1056C0001F800440004000000400078000400440A8
:1056D00007C000400400070004C001800600040069
:1056E000060001C0070001C006000000044006C01B
:1056F000010006C0044000000410071004E001800F
:10570000060004000000044005C0064004400000FC
:105710000000000004007BE04020000000000000CA
:105720000000FFF000000000000040207BE00400CB
:1057300000000000400080004000200020004000E9
:105740000000000000000000000000000000000059
:105750000000000000001FCC000C00000000000052
:105760000000080030006000080030006000000009
:10577000022003FC1E20022003FC1E200220000049
:1057800000000E1811043FFF10840C780000000088
:105790000F0010840F3800C00778188400780000CC
:1057A00000780F8410C411240E9800E400840008CF
:1057B0000800680070000000000000000000000009
:1057C00000000000000007E018182004400200005C
:1057D000000040022004181807E00000000000004C
:1057E0000240024001800FF00180024002400000B0
:1057F0000080008000800FF80080008000800000A2
:105800000001000D000E000000000000000000007C
:105810000000008000800080008000800080008008
:105820000000000C000C0000000000000000000060
:10583000000000060018006001800600180020002B
:10584000000007F0080810041004080807F0000022
:105850000000080408041FFC00040004000000000D
:1058600000000E0C10141024104411840E0C0000C3
:1058700000000C1810041104110412880C700000B0
:10588000000000E00320042408241FFC0024000082
:1058900000001F981084110411041088107000007B
:1058A000000007F008881104110418880070000037
:1058B00000001C00100010FC13001C001000000071
:1058C00000000E3811441084108411440E3800007A
:1058D00000000700088C10441044088807F00000FE
:1058E000000000000000030C030C0000000000009A
:1058F00000000000000101060000000000000000A0
:10590000000000800140022004100808100400007C
:105910000220022002200220022002200220000099
:10592000000010040808041002200140008000005C
:1059300000000E001200100C106C10800F00000010
:1059400003E00C1813E4142417C4082807D000003F
:105950000004003C03C41C40074000E4001C000499
:1059600010041FFC1104110411040E8800700000C3
:1059700003E00C1810041004100410081C100000A0
:1059800010041FFC100410041004080807F00000A5
:1059900010041FFC1104110417C41004081800009F
:1059A00010041FFC1104110017C0100008000000B3
:1059B00003E00C181004100410441C780040000090
:1059C00010041FFC10840080008010841FFC100451
:1059D0000000100410041FFC10041004000000005C
:1059E00000030001100110011FFE10001000000054
:1059F00010041FFC110403801464181C1004000020
:105A000010041FFC1004000400040004000C00003B
:105A100010041FFC1F0000FC1F001FFC10040000EE
:105A200010041FFC0C04030000E010181FFC100001
:105A300007F00808100410041004080807F000001C
:105A400010041FFC10841080108010800F000000D4
:105A500007F0081810241024101C080A07F2000090
:105A600010041FFC1104110011C011300E0C0004B1
:105A700000000E1C11041084108410441C38000017
:105A80001800100010041FFC100410001800000083
:105A900010001FF810040004000410041FF8100088
:105AA00010001E0011E0001C007013801C0010008C
:105AB0001FC0103C00E01F0000E0103C1FC00000B1
:105AC0001004180C163401C001C01634180C100450
:105AD00010001C00130400FC13041C001000000044
